:100000000C9434000C943E000C943E000C943E0082
:100010000C943E000C943E000C943E000C943E0068
:100020000C943E000C943E000C943E000C943E0058
:100030000C943E000C943E000C943E000C943E0048
:100040000C943E000C943E000C943E000C943E0038
:100050000C943E000C943E000C943E000C943E0028
:100060000C943E000C943E0011241FBECFEFD8E04C
:10007000DEBFCDBF0E9440000C9452000C940000E3
:100080008CEF8AB981E084B98BB18BB95B9A5C9AA9
:100090008BB18BB98BB18BB98BB18BB9289A80E0BE
:0800A00090E00895F894FFCFF1
:00000001FF
