:020000020000FC
:10000000ECEFEAB9E1E0E4B9F3ECF4B9F7EEF5B9F5
:1000100011E021E031E041E0F695F6951F23F695D9
:100020002F23F6953F23F6954F2351E0512761E0AA
:10003000622771E0732781E08427062E0122B52E06
:10004000B2220B28172E1222C62EC3221C28232EC2
:10005000242A342E91E09025A1E0A125B1E0B2251B
:10006000C1E0C325402C4A224B22592E5A2252204D
:100070005C224528592E5320692E61206220702C65
:100080007A2272207C2256285728692E6320792EE6
:1000900071207B226728702C7A227B22802C812081
:1000A0008220992E9A2292209C2278287928802CCE
:1000B0008120902C9B22AA2EA220AC2289288A285B
:1000C000902C9120A02CAB22B12CBB229A289B28EB
:1000D000A32CBA2EBB22C02CC120C220AB28AC2836
:1000E000E42DEE0FE529EE0FE629EE0FE729EE0FDE
:1000F000E829EE0FE929EE0FEE0FEBB9EA2DE5B98D
:02010000FFCF2F
:00000001FF
